:020000040800F2
:10000000C01A0020990100084D10000803100008D4
:10001000491000088B090008351B0008000000008B
:10002000000000000000000000000000BD140008F7
:10003000710E000800000000C110000849160008F9
:10004000B3010008B3010008B3010008B3010008C0
:10005000B3010008B3010008B3010008B3010008B0
:10006000B3010008B3010008B3010008B3010008A0
:10007000B3010008B3010008B3010008B301000890
:10008000B3010008B3010008B3010008B301000880
:10009000111B0008B3010008B3010008B3010008F8
:1000A000B3010008B3010008B3010008B301000860
:1000B000B3010008AD160008B3010008B301000841
:1000C000B3010008B3010008B3010008B301000840
:1000D000B3010008C5180008B3010008B301000807
:1000E000B3010008B3010008B301000800F002F8F2
:1000F00000F042F80AA090E8000C82448344AAF180
:100100000107DA4501D100F037F8AFF2090EBAE87D
:100110000F0013F0010F18BFFB1A43F0010318473B
:10012000E41F000004200000103A24BF78C878C102
:10013000FAD8520724BF30C830C144BF04680C60ED
:10014000704700000023002400250026103A28BF35
:1001500078C1FBD8520728BF30C148BF0B60704739
:10016000642900F06F80782900F0D3800020704768
:100170001FB51FBD10B510BD00F0C9FB1146FFF73C
:10018000F7FF01F05FFE00F0E7FB03B4FFF7F2FFBB
:1001900003BC01F0D8FC000009488047094800472B
:1001A000FEE7FEE7FEE7FEE7FEE7FEE7FEE7FEE727
:1001B000FEE7FEE704480549054A064B7047000084
:1001C0004D160008ED000008C0140020C01A0020E1
:1001D000C0160020C0160020704700000FB404496C
:1001E00010B503AA029800F03FFB10BC5DF814FBA9
:1001F0004400002070B5044685690068C10601D539
:10020000302600E02026C00707D070BDD4E90121C8
:1002100030469047206A401C20626D1EF6D570BDA6
:1002200070B5044685690078C00707D170BDD4E970
:10023000012120209047206A401C20626D1EF6D5C7
:1002400070BD00002DE9F0410646002410687529B4
:10025000314616A510D0AFF30080002802DA4042E4
:1002600013A507E031688A0701D512A502E0490706
:1002700004D511A5012401E0AFF3008000210A227A
:1002800006F1240709E0B0FBF2FCB0FBF2F302FB3D
:100290001C00303078541846491C0028F3D12346FE
:1002A0002A463046BDE8F04100F06CBA000000007C
:1002B0002D0000002B00000020000000F0B40D46CF
:1002C0000188090502D5214C7C4402E01F4C7C4486
:1002D0000E34002100F1240608E002F00F07120995
:1002E000E75D42EA03721B097754491C52EA03078F
:1002F000F3D102780023120704D5702D06D009B17E
:10030000022311342246F0BC00F03CBA0123103421
:10031000F8E770B504460D4621461068AFF300803B
:10032000024629462046BDE870400023C6E7D21D9C
:1003300022F00703D3E90023C0E70368126843F003
:10034000200303600823C3610023B7E7FC1D0000FE
:100350002DE9F05F894604464FF0000ADFF874B1DA
:10036000FB44C0F820A02046E1688847002874D0EC
:10037000252806D0D4E901219047206A401C20623C
:10038000F1E700265F462046E168884720280546B9
:1003900007DB312D05D2781910F8200C08B106437F
:1003A000F1E7B00701D526F00406C4F81CA0002729
:1003B000C4F818A02A2D09D0284601F0BDFB38B397
:1003C00004EB8708303DC8F8185019E059F8041BB1
:1003D000204604EB87029161E1688847012F0546BA
:1003E00018D1E069002820DA26F020061DE0D8F8B0
:1003F000180000EB800005EB40003038C8F818000A
:100400002046E1688847054601F096FB0028EED1BA
:10041000012F0AD02E2D08D12046E16888477F1C85
:100420000546022F46F02006C4DBA069002803DA47
:10043000404246F00106A061F00701D026F0100608
:100440006C2D0BD0682D09D04C2D39D06A2D35D0AC
:10045000742D35D07A2D33D016E038E0E1682F4680
:1004600020468847B842054609D16C2F26D04FF464
:100470008060E168064320468847054604E06C2F0B
:100480001AD04FF4807006430DB3A5F1410019282E
:1004900002D8203546F400664A46294620462660A2
:1004A0004E46FFF75DFE80B101280BD0F61D26F009
:1004B000070000F1080956E74020E4E78020D8E76C
:1004C0000020D6E706F104094DE7284652E7206AE6
:1004D000BDE8F09F8C1D000040EA010310B59B07AA
:1004E0000FD1042A0DD310C808C9121F9C42F8D09E
:1004F00020BA19BA884201D9012010BD4FF0FF304F
:1005000010BD1AB1D30703D0521C07E0002010BD64
:1005100010F8013B11F8014B1B1B07D110F8013BF0
:1005200011F8014B1B1B01D1921EF1D1184610BDD1
:1005300040EA0103024630B59B0710D14FF0013469
:1005400000E008C208C91D1B9D4315EAC41FF8D06E
:1005500013F0FF0102F8011B0DD01B0AF8E711F898
:10056000013B002B02F8013B05D011F8013B002BA9
:1005700002F8013BF3D130BD032A40F2308010F085
:10058000030C00F0158011F8013BBCF1020F62442E
:1005900098BF11F801CB00F8013B38BF11F8013BBF
:1005A000A2F1040298BF00F801CB38BF00F8013B6C
:1005B00011F0030300F06780083AC0F0088051F89A
:1005C000043B083A51F804CBA0E80810F5E7121DE7
:1005D0005CBF51F8043B40F8043BAFF30080D20706
:1005E00024BF11F8013B11F801CB48BF11F8012BD2
:1005F00024BF00F8013B00F801CB48BF00F8012BF5
:100600007047431A28BF9A427FF6B6AF032A1044B8
:10061000114440F2268010F0030F1EBF11F8013D77
:10062000521E00F8013D10F0030F7FF4F6AF11F0F9
:10063000030300F03E81083AC0F00B8051F8043DFE
:10064000083A51F804CD40F8043D40F804CDFFF7D6
:10065000F3BF121D5CBF51F8043D40F8043DAFF3F9
:100660000080D20724BF11F8013D11F801CD48BF29
:1006700011F8012C24BF00F8013D00F801CD48BF5E
:1006800000F8012C704710B5203AC0F00B80B1E89B
:100690001850203AA0E81850B1E81850A0E81850B7
:1006A000BFF4F5AF5FEA027C24BFB1E81850A0E8C0
:1006B000185044BF18C918C0BDE810405FEA827CDA
:1006C00024BF51F8043B40F8043B08BF7047D207F1
:1006D00028BF31F8023B48BF11F8012B28BF20F892
:1006E000023B48BF00F8012B70474FF0000204297D
:1006F000C0F0128010F0030C00F01B80CCF1040C51
:10070000BCF1020F18BF00F8012BA8BF20F8022B84
:10071000A1EB0C0100F00DB85FEAC17C24BF00F82A
:10072000012B00F8012B48BF00F8012B70474FF058
:10073000000200B5134694469646203922BFA0E831
:100740000C50A0E80C50B1F12001BFF4F7AF09073D
:1007500028BFA0E80C5048BF0CC05DF804EB89002E
:1007600028BF40F8042B08BF704748BF20F8022B71
:1007700011F0804F18BF00F8012B70477047704789
:10078000704770472DE9F0470D469946924604465A
:1007900000F124080168880604D5E06921F0100101
:1007A000216000E00120A84201DD471B00E0002796
:1007B000A1697A1902EB0900081AA0612078C00625
:1007C00002D42046FFF716FD002608E0D4E90121F7
:1007D0001AF806009047206A401C761C20624E459D
:1007E000F4DB2078C0060AD52046FFF703FD06E0BB
:1007F000D4E9012130209047206A401C2062381E35
:10080000A7F10107F4DC07E0D4E9012118F805009D
:100810009047206A401C2062281EA5F10105F3DCE8
:100820002046FFF7FDFC2078000602D50220BDE837
:10083000F0870120FBE7000001694A1C026108788B
:10084000704700B58FB0CDE9013100210591054910
:100850007944CDE9031011466846FFF779FD0FB0E2
:1008600000BD0000E5FFFFFF074B70B50D467B4460
:10087000FFF7E7FF0446284600F045F810B14FF0B7
:10088000FF3070BD204670BD87140000431A28BF9A
:100890009A427FF6F8AE104410F0030F11441EBFC9
:1008A00011F8013D521E00F8013D10F0030F7FF4D6
:1008B000F6AF103AC0F00A8010B531E91850103A7E
:1008C00020E91850BFF4F9AFBDE81040530724BF2A
:1008D00031E9081020E9081044BF51F8043D40F800
:1008E000043D12F0030F08BF7047D20728BF31F84C
:1008F000023D48BF11F8012C28BF20F8023D48BF37
:1009000000F8012C7047007B00F0800070477546AE
:1009100000F028F8AE4605006946534620F007006F
:10092000854618B020B5FFF745FCBDE820404FF0E4
:1009300000064FF000074FF000084FF0000B21F0C9
:100940000701AC46ACE8C009ACE8C009ACE8C00996
:10095000ACE8C0098D4670470446AFF300802046DE
:10096000FFF713FC004870475C14002070B5034685
:10097000585C4D1C2CB204E02546661C34B25D5D0B
:1009800068408D18A542F7DC70BD00BFFEE700008F
:100990001CB504460121042000F0A4FB01214806F7
:1009A00000F090FB4FF48050ADF8040003208DF868
:1009B000060018208DF8070001A9154800F094FAE8
:1009C0004FF40060ADF8040048208DF8070001A93D
:1009D0000F4800F089FA012202210E4800F0A8F821
:1009E00014208DF8000000208DF8010001208DF802
:1009F00002008DF80300684600F02AFB21460548F6
:100A000000F0A1F90021034800F0C0F91CBD00006E
:100A1000000801400064004010B50021837A0122E3
:100A200002FA03F13D4A126842F001023B4B1A60A0
:100A30003A4A1C3212688A43384B1C331A60027BD4
:100A4000CAB9364A0C3212688A43344B0C331A60E6
:100A50004288C38842EA0343304A4032847A42F8EB
:100A600034300288838842EA03432C4A4032847A35
:100A700002EBC4025360027B012A19D1274A0C32CF
:100A800012680A43254B0C331A604288038842EAF5
:100A90000343224A4032847A42F83430C288838841
:100AA00042EA03431D4A4032847A02EBC402536097
:100AB000C27A3AB9194A121D12688A43174B1B1D94
:100AC0001A6006E0154A121D12680A43134B1B1DDB
:100AD0001A60028932B9114A143212688A430F4BE4
:100AE00014331A600289012A06D10C4A14321268A2
:100AF0000A430A4B14331A60427B012A06D1074A83
:100B00001C3212680A43054B1C331A60034A1268F0
:100B100022F00102014B1A6010BD00000066004087
:100B20000146481C402801D100207047481CFCE7C2
:100B30001AB143690B43436102E043698B4343614C
:100B4000704730B5024600200023146824F00204E8
:100B50001460146844F00104146000E05B1C5468E5
:100B600004F001041CB94FF6FF74A342F6D1546897
:100B700004F001040CB900206CE08C79012C04D144
:100B8000146844F08004146003E0146824F08004C6
:100B90001460CC79012C04D1146844F04004146032
:100BA00003E0146824F0400414600C7A012C04D192
:100BB000146844F02004146003E0146824F0200456
:100BC00014604C7A012C04D1146844F010041460B1
:100BD00003E0146824F0100414608C7A012C04D112
:100BE000146844F00804146003E0146824F0080456
:100BF0001460CC7A012C04D1146844F0040414600D
:100C000003E0146824F0040414608C78A407CD7801
:100C100044EA05640D7944EA05444D7944EA0554F3
:100C20000D886D1E2C43D461146824F001041460F7
:100C3000002300E05B1C546804F001041CB14FF673
:100C4000FF74A342F6D1546804F001040CB10020F3
:100C500000E0012030BD10B500F5D87303EB01139F
:100C60001B6803F004031372137A53B900F5D873A9
:100C700003EB01131B6840F2FF7404EA5353136043
:100C800009E000F5D87303EB01131B686FF06044B3
:100C900004EAD303536000F5D87303EB01131B6818
:100CA00003F00203537200F5D87303EB01135B6882
:100CB00003F00F03937200F5D87303EB01135B6825
:100CC0001B0AD37400F5D87303EB01139B68D3722E
:100CD00000F5D87303EB01139B681C0A147300F52D
:100CE000D87303EB01139B681C0C547300F5D87385
:100CF00003EB01139B681B0E937300F5D87303EB92
:100D00000113DB68D37300F5D87303EB0113DB68C1
:100D10001C0A147400F5D87303EB0113DB681C0C78
:100D2000547400F5D87303EB0113DB681B0E937446
:100D300021B9C36843F02003C36003E0036943F0B3
:100D40002003036110BD3EB505460C4600208DF81A
:100D500006008DF807008DF8080001208DF80900C5
:100D600000208DF80A008DF80B008DF802008DF838
:100D7000030008208DF8040007208DF80500ADF869
:100D8000004069462846FFF7DCFE3EBD7FB50546BC
:100D90000C468DF80A4000208DF80B008DF80C00F1
:100DA000ADF80000ADF80200ADF80400ADF80600A3
:100DB000ADF8080001208DF80D006846FFF72CFE05
:100DC0007FBD000010B52448B0F9000030B1012803
:100DD00008D0022817D0072837D125E001201E4966
:100DE000088033E01D4800681D490968884209DA17
:100DF0001B480068C8301949086000221146C1200C
:100E000000F05EFB22E01748006815490968884237
:100E100009DA13480068C83012490860D022124924
:100E2000C22000F04DFB11E0104800680C49096831
:100E3000884209DA0A480068C8300C490860002274
:100E40001146C52000F03CFB00E000BF00BF024897
:100E5000B0F9000010BD00004E000020500000203E
:100E600040000020540000208C0E0020580000207C
:100E70007047000010B500F017F84FF4E13000F0B3
:100E8000DFFC022000F0C0F80820FFF781FD002100
:100E90000448FFF77BFF41F61F41632000F01AFC76
:100EA00010BD00000064004008B501210C2000F0D6
:100EB00019F90420ADF8000010208DF8030003207C
:100EC0008DF802006946064800F00EF84FF4A04085
:100ED000ADF800006946034800F006F808BD0000C0
:100EE00000080140000C01402DE9F04102460025B8
:100EF0000026002000230024002791F803C00CF0F6
:100F00000F0591F803C00CF0100CBCF1000F03D0DA
:100F100091F802C04CEA050591F800C0BCF1000F41
:100F200031D0146800202BE04FF0010C0CFA00F3D4
:100F3000B1F800C00CEA03069E4220D183004FF0B6
:100F40000F0C0CFA03F7BC4305FA03FC4CEA04044B
:100F500091F803C0BCF1280F06D14FF0010C0CFA38
:100F600000FCC2F814C00AE091F803C0BCF1480FBD
:100F700005D14FF0010C0CFA00FCC2F810C0401C67
:100F80000828D1D31460B1F800C0BCF1FF0F34DDE4
:100F9000546800202EE000F1080C4FF0010808FA18
:100FA0000CF3B1F800C00CEA03069E4221D1830085
:100FB0004FF00F0C0CFA03F7BC4305FA03FC4CEAA4
:100FC000040491F803C0BCF1280F05D100F1080C0E
:100FD00008FA0CF8C2F8148091F803C0BCF1480F6D
:100FE00007D100F1080C4FF0010808FA0CF8C2F81C
:100FF0001080401C0828CED35460BDE8F081016108
:10100000704700BFFEE7000010B5044624B1012C74
:1010100007D0022C11D10AE004210948FFF7EFFFA5
:101020000CE04FF480510748FFF7E9FF06E04FF46A
:1010300080410448FFF7E3FF00E000BF00BF10BDA0
:1010400000080140000C014000BFFEE770470000AF
:1010500070B5002100230F22C47804B3154C246816
:1010600004F4E064C4F5E064210AC1F10403CA4059
:10107000447804FA03F184781440214309010E4CAA
:101080000678A155047804F01F050124AC400578CA
:101090006D11AD0005F1E025C5F8004109E00478C7
:1010A00004F01F050124AC40044D0678761145F884
:1010B000264070BD0CED00E000E400E080E100E0BF
:1010C0007047000029B1064AD2690243044BDA6135
:1010D00004E0034AD2698243014BDA6170470000A1
:1010E0000010024029B1064A92690243044B9A61FA
:1010F00004E0034A92698243014B9A617047000001
:101100000010024030B500210022002400232D4DA4
:101110006D6805F00C0121B1042905D0082923D1FF
:1011200005E0294D056022E0274D05601FE0254DB3
:101130006D6805F47012234D6D6805F48034022546
:1011400005EB92421CB9214D554305600BE01D4D46
:101150006D6805F400351DB11C4D5543056002E076
:10116000194D5543056002E0174D056000BF00BFF3
:10117000144D6D6805F0F0010909154D6B5C0568AB
:10118000DD4045600F4D6D6805F4E061090A104DC2
:101190006B5C4568DD4085600A4D6D6805F4605103
:1011A000C90A0B4D6B5C4568DD40C560054D6D6837
:1011B00005F44041890B074D6B5CC568B5FBF3F541
:1011C000056130BD0010024000127A0000093D00A8
:1011D0001C0000202C0000202DE9F0417D497E4AB2
:1011E000B2F90020881800F095FD0FFA80F8B8F1E8
:1011F000000F02DC0020BDE8F08177480088404401
:1012000000B2754908800846B0F9001073A0FEF7D7
:10121000E5FF0024CAE06F480519288842F223310F
:1012200088427BD111227149281DFFF755F900280A
:10123000F7D1E98A04F118000844401C6649B1F965
:101240000010884200D9B9E0E98A04F11800084486
:1012500060490F5CE88A163002B202212846FFF787
:1012600085FBB8421AD062A0FEF7B8FF264606E01A
:101270005848815D62A0FEF7B1FF701C06B2E98A92
:1012800004F118000844401CB042F1D839465EA071
:10129000FEF7A4FF0020504908808FE0A878C128FD
:1012A00004D0C2282CD0C52852D138E058A0FEF76F
:1012B00095FF484A04F118001118D0225C48FFF746
:1012C0005BF95CA15A482730FFF732F916205849DC
:1012D000C1F8A800112245495548FFF74DF91422DD
:1012E000584953481230FFF747F902205649088001
:1012F0005648006841F294110844554908602BE0B3
:1013000054A0FEF76BFF03204F4908804F48006848
:1013100041F2941108444E4908601DE022E04A4819
:10132000B0F9001053A0FEF759FF4748B0F900008C
:10133000032805DB274904F11800085C42490880AE
:101340004248006841F2941108444149086003E0B2
:1013500051A0FEF743FF00BF00BFE88A19302044C8
:1013600004B213E0264606E01A48815D24A0FEF789
:1013700035FF701C06B204F118008642F4D34DA06C
:10138000FEF72CFF00201449088017E0002C07DD31
:101390001148B0F90000021B0E480119FFF731F99E
:1013A0000D480088001B00B20B49088004F11800AA
:1013B0000949B1F9001088427FF62DAF00BF0648F9
:1013C000B0F90000B0F5007F02DD0020024908807E
:1013D000002010E75C0F00204C000020726563764F
:1013E000206C656E3A2564200D0A00005C00002028
:1013F00042434320636865636B206572720D0A0087
:1014000025303278200000000D0A25780D0A0000F2
:10141000726563762047455420434F4E4649472026
:101420006D6573736167652041434B0D0A000000D1
:101430008C0E00203131352E32382E3130332E31A2
:10144000373100006E0000204E00002040000020D8
:1014500014000020726563762050555420434F4E8F
:10146000464947206D6573736167652041434B0DA5
:101470000A000000726563762047455420535441AA
:10148000545553206D6573736167652041434B3A32
:1014900025640D0A000000007265637620756E6B8E
:1014A0006E6F77206D6573736167652041434B0DE7
:1014B0000A0000000D0A0D0A00000000704700003D
:1014C0002DE9F041ADF5007D05460E4617464FF07B
:1014D00000086C4642F223302080A570FE20E070A8
:1014E00011221349201DFFF747F801206075E7829C
:1014F00026B1E28A314606A8FFF73EF8E08A1630A8
:1015000002B202216846FFF731FAE18A18310DF87C
:101510000100E08A19301FFA80F842466946054802
:1015200000F0BCFA00200DF5007DBDE8F081000060
:101530005C0000200038014010B500F001F810BD3B
:101540000CB50020019000903348006840F48030D2
:101550003149086000BF3048006800F40030009056
:101560000198401C0190009818B90198B0F5A06F3F
:10157000F1D12948006800F4003010B1012000903A
:1015800001E0002000900098012843D12348006822
:1015900040F01000214908600846006820F0030070
:1015A00008600846006840F0020008601A48406879
:1015B000194948600846406848600846406840F459
:1015C000806048600846406820F47C104860084607
:1015D000406840F4E81048600846006840F08070B9
:1015E000086000BF0C48006800F000700028F9D0C7
:1015F0000948406820F003000749486008464068F1
:1016000040F00200486000BF0348406800F00C0052
:101610000828F9D10CBD0000001002400020024053
:10162000042808D14FF0E021096941F004014FF08E
:10163000E022116107E04FF0E021096921F0040187
:101640004FF0E022116170477047000010B5134859
:10165000006840F0010011490860084640681049E0
:1016600008400E494860084600680E4908400B498A
:1016700008600846006820F480200860084640683A
:1016800020F4FE0048604FF41F008860FFF754FF0D
:101690004FF000600449086010BD000000100240D7
:1016A0000000FFF8FFFFF6FE08ED00E010B5012195
:1016B000064800F04EF840B10121044800F03AF825
:1016C00003480068401C0249086010BD0004004047
:1016D000400000207FB505460C4601210220FFF79F
:1016E000F1FCADF80850ADF804400020ADF80A0058
:1016F000ADF8060001A90E4800F046F80122114697
:101700000B4800F037F81D208DF8000000208DF800
:10171000010003208DF8020001208DF803006846C7
:10172000FFF796FC0121024800F007F87FBD00009A
:1017300000040040CA430282704721B1028842F08F
:101740000102028004E002884FF6FE731A40028014
:10175000704730B50246002000230024158A05EAB0
:101760000103958905EA010413B10CB1012000E0E1
:10177000002030BD1AB183890B43838102E0838945
:101780008B43838170470000002202881D4B9842E2
:101790000ED01D4B98420BD0B0F1804F08D01B4BA0
:1017A000984205D01A4B984202D01A4B984204D165
:1017B0004FF68F731A404B881A43174B984207D045
:1017C000164B984204D04FF6FF431A40CB881A4379
:1017D00002808B8883850B8803850A4B98420BD047
:1017E000094B984208D00E4B984205D00D4B9842B9
:1017F00002D00D4B984201D10B7A038601238382DC
:1018000070470000002C01400034014000040040FB
:1018100000080040000C0040001000400014004090
:101820000040014000440140004801400146481C7E
:10183000B0F5807F01D100207047481CFCE7000014
:101840001CB50446012144F20400FFF74BFC4FF4A1
:101850000070ADF8040003208DF8060018208DF804
:10186000070001A91548FFF73FFB4FF48060ADF872
:10187000040004208DF8070001A91048FFF734FB8D
:1018800025208DF8000000208DF8010001208DF842
:1018900002008DF803006846FFF7DAFB012240F2F0
:1018A0002551074800F063F80121054800F01CF8B5
:1018B0002146034800F016F91CBD00000008014055
:1018C0000038014010B540F22551064800F025F8D7
:1018D00030B1044800F0DCF8C4B2204600F072FBDE
:1018E00010BD00000038014021B1828942F400524D
:1018F000828104E082894DF6FF731A40828170472D
:1019000002460020B1F5007F00D100BF13880B40D4
:101910000BB1012000E00020704770B502460024A2
:1019200000230025002040F66A16B14200D100BF16
:10193000C1F3421501F01F03012606FA03F3012D3E
:1019400002D19689334006E0022D02D1168A334037
:1019500001E0968A33400C12012606FA04F4168838
:10196000344013B10CB1012000E0002070BDF0B58F
:101970000346002400260025002040F66A17B942DD
:1019800000D100BF1846C1F3421401F01F06012721
:1019900007FA06F5012C01D10C3004E0022C01D12C
:1019A000103000E014301AB107682F43076002E0DE
:1019B0000768AF430760F0BD2DE9F04786B00546E4
:1019C0000E460024A24600BFA1460027B08900B100
:1019D00000BF2F462C8A4CF6FF700440F088044369
:1019E0002C82AC894EF6F3100440B088318908434C
:1019F000718908430443AC81AC8A4FF6FF40044030
:101A0000B0890443AC8201A8FFF77CFB1F488742E2
:101A100002D1DDF810A001E0DDF80CA0A88900F4E7
:101A2000004040B10AEBCA0000EB0A1031684900DF
:101A3000B0FBF1F807E00AEBCA0000EB0A103168CE
:101A40008900B0FBF1F86420B8FBF0F00401200934
:101A5000642101FB1089A88900F4004040B13220C4
:101A600000EBC900B0FBF1F000F00700044308E010
:101A7000322000EB09106421B0FBF1F000F00F0000
:101A800004432C8106B0BDE8F08700000038014017
:101A900001468888C0F30800704700002DE9F04136
:101AA00006460F4615462A4639460B48FEF764FDA2
:101AB00000240DE00848015D304600F00FF800BF3B
:101AC00080213046FFF71CFF0028F9D0601C84B24B
:101AD000AC42EFDBBDE8F0818C0A0020C1F30802C4
:101AE000828070477FB505460C4600940020ADF813
:101AF0000400ADF80600ADF80800ADF80C000C20AD
:101B0000ADF80A0069462846FFF756FF7FBD000082
:101B100000B585B06A4600210548FFF79CF801989A
:101B200000F07AFA10B1684600F01CFA05B000BD6A
:101B30000064004000BFFEE730380A2801D20120CF
:101B4000704700207047014600BF704710B504463B
:101B5000384801780088401C00B2364A108001F0F5
:101B60000700354948701046B0F9000000EB40000E
:101B7000642190FBF1F201FB12002F4948722D48BD
:101B8000007800F0010088752A48007800EB80009A
:101B9000C1B22948A0F840102648B0F900008000E2
:101BA000642190FBF1F201FB1200C1B2224880F8DF
:101BB00054102048B0F90000C0EBC000642190FB35
:101BC000F1F201FB120081B21B48A0F888101948FD
:101BD000B0F90000C000642190FBF1F201FB12009B
:101BE00081B21548A0F892101248B0F9000000EB3D
:101BF000C000642190FBF1F201FB120081B20E489B
:101C0000A0F8A0100B48B0F9000000EB400101EB78
:101C1000C000642190FBF1F201FB120081B2064882
:101C2000A0F8AC10B02201462046FEF7A5FCB0207B
:101C300010BD00008A0000205C1300202DE9F04157
:101C40000446002500200649088067190625661904
:101C5000182204493046FEF716FD2846BDE8F081FB
:101C6000840000206C11002010B56FF00400FFF715
:101C7000D7FC0A4800680A49B0FBF1F0094908702E
:101C80000846007800EB4001C1EBC0104FF6FF7131
:101C900001EAC0000449088010BD000000000020D7
:101CA00000127A00480000204A0000200146114A34
:101CB00012884A434FF0E0235A6100229A611A4683
:101CC000126942F001021A6100BF4FF0E022106970
:101CD00000F001021AB100F48032002AF5D04FF072
:101CE000E022126922F001024FF0E0231A61002283
:101CF0009A6170474A00002000BF054A128802F02E
:101D00004002002AF9D0C2B2014B1B1D1A80704755
:101D1000003801402DE9F041074613480568134893
:101D200004680026A5421BD0A54209DA661B1048AC
:101D3000411932463846FEF71FFC0B4804600FE09D
:101D4000C5F580760A48411932463846FEF714FC3C
:101D5000B81922460649FEF70FFC264402480460E3
:101D60003046BDE8F0810000380000203C00002033
:101D70008C09002010B500F001F810BD10B54FF42B
:101D8000F8712D48FEF7D3FC01202B490870022082
:101D90000876052081F82800062081F83400072005
:101DA00081F84400082081F86600092081F8B80114
:101DB00001212148417601201F49887601211E48D2
:101DC00080F8291080F8671001201B4981F868000D
:101DD0005F211948A0F86E100121A0F870105F2152
:101DE00080F87210012180F8B9110120124981F8A0
:101DF000BA0114211048A0F8BC1110210F48FEF7B9
:101E000074FCB0210E48FEF792FC81200C4908704A
:101E1000822081F83C00832081F85000842081F8E2
:101E20008600852081F89000862081F89C0087201C
:101E300081F8A60010BD00006C1100205C1100208C
:101E40005C130020394E0024002700BF0025FFF757
:101E50000BFFFFF70FF800BF3548006841F29411FF
:101E6000084434490860012033490880FFF782FFA5
:101E70005AE02F4806680068844249DA06F1640097
:101E80002B490968884243DD2C48FFF7D7FE2C49CF
:101E900008802C48FFF75AFE2B4908802448066822
:101EA00004F1640022490968884201DD643403E0DA
:101EB0001F48006800F164042448B0F9001024A011
:101EC000FEF78CF92148008805280DD118480068D4
:101ED00087420ADA002211460120FFF7F1FA14487E
:101EE000006800F5FA7700E000271848B0F9000014
:101EF00002280DDD1248008882B210490220FFF747
:101F0000DFFA1148008882B20E49D020FFF7D8FAD4
:101F100007480068854202DAFEF754FF0A350520BB
:101F2000FFF7C4FEFFF758F9A3E7000018FCFFFF16
:101F30004000002014000020860000208C000020BB
:101F4000180000208C0200201A0000204E00002003
:101F50006D633230207374617475733A25640D0AB1
:101F60000000000010B504460F480068FEF7D8FDD9
:101F70000E490968884203D10DA0FEF72FF910BD64
:101F80000949096801EB81010D4A02EB8100142225
:101F90002146FEF778FB04480068FEF7C1FD0249C0
:101FA000086000BFEBE70000340000203000002094
:101FB00063616E206D73672066756C6C0D0A00009E
:101FC0008C04002010B504460B480068FFF72EFC77
:101FD0000A490968884203D109A0FEF7FFF810BD3D
:101FE0000C4805490968445403480068FFF71EFC83
:101FF0000149086000BFF2E73C00002038000020E3
:10200000756172742072696E672066756C6C0D0A5A
:10201000000000008C09002010B504460448008828
:1020200008B9002010BD204600F004F800B2F9E71E
:102030008600002001461E4A881A914229D016DCEB
:102040001C4AA1EB020091422BD009DC1A4808443B
:1020500040B31A4A104410B3B0F5803F26D11FE0B8
:10206000174A104400B3174A1044F8B91BE0B0F502
:10207000801F11D006DCB0F5803F0BD0B0F5C02F2B
:1020800014D108E0B0F5001F07D0B0F5800F0DD1D6
:1020900004E000BF00BF00BF00BF00BF00BF00BF23
:1020A00000BF00BF00BF00BF012070470120FCE758
:1020B000F3EFA118D000FC0CE92F20F347CFE5FF88
:1020C0003659FAF4F605E8FF303132333435363715
:1020D000383941424344454640305800303132336C
:1020E000343536373839616263646566403078006C
:1020F00004000008000000000000000200010000D1
:102100001000000024210008000000208C000000C6
:1021100028010008B02100088C000020341A0000BB
:102120004401000800A24A04000000000000000072
:102130000102030406070809000000000000000077
:10214000000000000102030401020304060708095D
:10215000020406080000000000000000000000006B
:10216000000000000000000000000000000000006F
:10217000000001000000000000000000000000005E
:102180004C484C3133434532364853303030303090
:102190003300383938363032423331333136353026
:1021A00036353439393800000000000000000000E6
:04000005080000ED02
:00000001FF
